:1000000020C0BCC2BBC2BAC2B9C2B8C2D4C113C23A
:10001000B5C2B4C2B3C2B2C2B1C2B0C2AFC2AEC244
:10002000ADC2ACC2ABC2AAC2A9C2A8C2A7C2A6C274
:1000300098C2A4C2A3C2A2C2A1C2A0C23E003E1CDA
:10004000800011241FBECFEFCDBFDFE3DEBFECE3A6
:10005000F0E040E017C0B591A5913591259105914B
:1000600007FD0CC095918591EF01F92FE82F0590C0
:100070000D92A217B307D9F7FE0104C01D92A21773
:10008000B307E1F7E134F40731F703D063C2F89422
:02009000FFCFA0
:100092006CD282E08093060481E08093260484E09F
:1000A2008093050486B082FA882480F8412C512C72
:1000B200320130E00F2EF6E0CF2EF4E0DF2EF02DED
:1000C2006894992491F80F2EF5E0EF2EF4E0FF2EBC
:1000D200F02D6894332432F80F2EF6E2AF2EF4E0BE
:1000E200BF2EF02D82B1C1E0982F907184FFC0E045
:1000F20002B126B186B1D6B1992309F4D2C0311129
:10010200D5C04090083E5090093E60900A3E7090E3
:100112000B3EF70190829AC080319742A105B1054A
:1001220078F480911B3E882331F081E0F5018083D1
:1001320010921B3E8BC0F601308210921B3E86C08D
:1001420081E0F5018083F701308280C06091083E32
:100152007091093E80910A3E90910B3E24E630E078
:1001620040E050E0A0D120FD03C0F701908202C020
:10017200F6019082012B09F069C0D2FBDD27D0F98C
:100182008091043E9091053EA091063EB091073EBB
:1001920020911A3E21110FC021E020931A3E809334
:1001A200003E9093013EA093023EB093033E8D1217
:1001B20004C08D2E4BC08D1669F086B082FA882459
:1001C20080F88093003E9093013EA093023EB0934C
:1001D200033E3CC04091003E5091013E6091023E80
:1001E2007091033E841B950BA60BB70B883B984876
:1001F200A105B10558F1F701308281E0F501808354
:1002020010921B3E10921A3E21C0012BE9F421FFED
:1002120015C06091083E7091093E80910A3E90910E
:100222000B3E24EF31E040E050E03DD120FD03C021
:10023200F70190820BC0F601908208C081E08093A2
:100242001B3EF601908202C0F60190828091083E28
:100252009091093EA0910A3EB0910B3E0196A11DDC
:10026200B11D8093083E9093093EA0930A3EB0933D
:100272000B3E8091043E9091053EA091063EB091C6
:10028200073E0196A11DB11D8093043E9093053E49
:10029200A093063EB093073E81E090E050D13C2F00
:1002A20021CF047010E080FD51CFAFCF8091083E86
:1002B2009091093EA0910A3EB0910B3E8419950996
:1002C200A609B709883EF3E09F07A105B10508F02A
:0402D20023CF1FCF48
:1002D600CF93DF93C0E0D4E01C82A0E2B4E0149692
:1002E6001C921497E0E4F4E0148286E0888381E0AF
:1002F6008C931082188A198A1A8A80E88B8B8C8BC9
:100306001D8A1E8A1F8A88E850968C9350975196AC
:100316001C92519752961C92529753961C92539741
:1003260054961C92549755961C92559756961C9225
:10033600569757961C92108A118A128A138A148A23
:10034600158A168A178AE0EEF5E01182108213826A
:100356001482158212828FEB92E08093183E90935E
:10036600193E80EC92E08093163E9093173E81EC06
:1003760092E08093143E9093153E82EC92E0809337
:10038600123E9093133E83EC92E08093103E90933E
:10039600113E84EC92E080930E3E90930F3E85ECE6
:1003A60092E080930C3E90930D3EDF91CF9108959D
:1003B6001F920F920FB60F9211242F933F934F93D4
:1003C6005F936F937F938F939F93AF93BF93EF93B7
:1003D600FF931B9B05C0E091183EF091193E0995CD
:1003E6001C9B05C0E091163EF091173E0995199B9E
:1003F60005C0E091103EF091113E09951A9B05C08B
:10040600E0910E3EF0910F3E09958FEF83B9FF9173
:10041600EF91BF91AF919F918F917F916F915F9176
:100426004F913F912F910F900FBE0F901F901895EF
:100436001F920F920FB60F9211242F933F934F9353
:100446005F936F937F938F939F93AF93BF93EF9336
:10045600FF93399B05C0E091143EF091153E099536
:100466003A9B05C0E091123EF091133E0995389BE8
:1004760005C0E0910C3EF0910D3E09958FEF87B9CE
:10048600FF91EF91BF91AF919F918F917F916F9166
:100496005F914F913F912F910F900FBE0F901F903C
:0204A6001895A7
:1004A800A1E21A2EAA1BBB1BFD010DC0AA1FBB1F70
:1004B800EE1FFF1FA217B307E407F50720F0A21BE2
:1004C800B30BE40BF50B661F771F881F991F1A944F
:1004D80069F760957095809590959B01AC01BD0179
:0404E800CF010895A3
:1004EC0040E068ED80E690E03FD041E168ED81E6C8
:1004FC0090E03AD040E068ED82E690E035D040E004
:10050C0068ED80E790E030D040E068ED88E790E05F
:0E051C002BD040E068ED8CE790E026D00895EB
:10052A0040E068ED80E191E020D0E0E1F1E0128264
:06053A00138280E0089529
:10054000009739F0E1E4F3E03197F1F7000001970B
:04055000C9F708954A
:0E055400EC011BD019D0CE0119D0CE0118D069
:0A0562008F938FEF8BB98F911895DE
:08056C00BFDFB3DEDCDF089500
:08057400FC0164BF40830895FF
:02057C0041CD6F
:02057E000895DE
:020580000895DC
:020582000895DA
:020584000895D8
:020586000895D6
:020588000895D4
:02058A000895D2
:02058C000895D0
:02058E000895CE
:020590000895CC
:020592007DDD0D
:02000004008278
:090000000000020000C40700002A
:00000001FF
